{
  "contractName": "Owned",
  "abi": [
    {
      "constant": true,
      "inputs": [],
      "name": "_owner",
      "outputs": [
        {
          "name": "",
          "type": "address"
        }
      ],
      "payable": false,
      "stateMutability": "view",
      "type": "function",
      "signature": "0xb2bdfa7b"
    },
    {
      "inputs": [],
      "payable": false,
      "stateMutability": "nonpayable",
      "type": "constructor",
      "signature": "constructor"
    },
    {
      "anonymous": false,
      "inputs": [
        {
          "indexed": true,
          "name": "oldaddr",
          "type": "address"
        },
        {
          "indexed": true,
          "name": "newaddr",
          "type": "address"
        }
      ],
      "name": "TransferOwnership",
      "type": "event",
      "signature": "0x5c486528ec3e3f0ea91181cff8116f02bfa350e03b8b6f12e00765adbb5af85c"
    },
    {
      "constant": true,
      "inputs": [],
      "name": "owner",
      "outputs": [
        {
          "name": "",
          "type": "address"
        }
      ],
      "payable": false,
      "stateMutability": "view",
      "type": "function",
      "signature": "0x8da5cb5b"
    },
    {
      "constant": true,
      "inputs": [],
      "name": "isOwner",
      "outputs": [
        {
          "name": "",
          "type": "bool"
        }
      ],
      "payable": false,
      "stateMutability": "view",
      "type": "function",
      "signature": "0x8f32d59b"
    },
    {
      "constant": false,
      "inputs": [
        {
          "name": "_newOwner",
          "type": "address"
        }
      ],
      "name": "transferOwnership",
      "outputs": [],
      "payable": false,
      "stateMutability": "nonpayable",
      "type": "function",
      "signature": "0xf2fde38b"
    }
  ],
  "bytecode": "0x608060405234801561001057600080fd5b5060008054600160a060020a0319163317808255604051600160a060020a039190911691907f5c486528ec3e3f0ea91181cff8116f02bfa350e03b8b6f12e00765adbb5af85c908290a3610201806100696000396000f3fe6080604052600436106100615763ffffffff7c01000000000000000000000000000000000000000000000000000000006000350416638da5cb5b81146100665780638f32d59b14610097578063b2bdfa7b146100c0578063f2fde38b146100d5575b600080fd5b34801561007257600080fd5b5061007b61010a565b60408051600160a060020a039092168252519081900360200190f35b3480156100a357600080fd5b506100ac610119565b604080519115158252519081900360200190f35b3480156100cc57600080fd5b5061007b61012a565b3480156100e157600080fd5b50610108600480360360208110156100f857600080fd5b5035600160a060020a0316610139565b005b600054600160a060020a031690565b600054600160a060020a0316331490565b600054600160a060020a031681565b610141610119565b151561014c57600080fd5b61015581610158565b50565b600160a060020a038116151561016d57600080fd5b60008054604051600160a060020a03808516939216917f5c486528ec3e3f0ea91181cff8116f02bfa350e03b8b6f12e00765adbb5af85c91a36000805473ffffffffffffffffffffffffffffffffffffffff1916600160a060020a039290921691909117905556fea165627a7a72305820564c962ee801947c4d0e56961cbe0cba9d0991c3d20e8ce12aa652ae261d0fd20029",
  "source": "pragma solidity ^0.5.0;\n\ncontract Owned {\n    address public _owner;\n\n    event TransferOwnership(address indexed oldaddr, address indexed newaddr);\n\n    constructor () public {\n      _owner = msg.sender;\n      emit TransferOwnership(address(0), _owner);\n    }\n\n    function owner() public view returns(address) {\n      return _owner;\n    }\n\n    modifier onlyOwner(){ \n      require(isOwner());\n      _;\n    }\n\n    function isOwner() public view returns (bool) {\n      return msg.sender == _owner;\n    }\n\n    function transferOwnership(address _newOwner) public onlyOwner{\n      _transferOwnership(_newOwner);\n    }\n\n    function _transferOwnership(address _newOwner) internal {\n      require(_newOwner != address(0));\n      emit TransferOwnership(_owner, _newOwner);\n      _owner = _newOwner;\n    }\n}",
  "sourcePath": "D:/BlockChain/erc20-token/contracts/Owned.sol",
  "compiler": {
    "name": "solc",
    "version": "0.5.0+commit.1d4f565a.Emscripten.clang"
  },
  "schemaVersion": "3.0.1",
  "updatedAt": "2019-01-15T08:35:58.288Z",
  "devdoc": {
    "methods": {}
  },
  "userdoc": {
    "methods": {}
  }
}